[
    {
        "inputs": [
            {
                "wif": "KyDvBNn41mY97mgXJmaYB2GtqTmx11wzbMZyZqizLGBRqEWMkFPP",
                "type": "P2PKH",
                "txid": "c7d7378f15482e59e651c11ee95ef8eb86e8b61f2de93f2d499db11befd043b2",
                "vout": 0,
                "amount": 1323157,
                "script": "4730440220057c67c9c8ae9e288df1e4253e197ac285f57a7e020ce89fadb100069d089b5d0220466b1589180dd1d00b24012f296fe761b4bd9d242dc9461872bdec41e009f2d4012103171d61c699014278803aa18526122b16288a41c6996f8f4550a5b30b071905f8",
                "witness": null,
                "sequence": 4294967295,
                "serialized": "b243d0ef1bb19d492d3fe92d1fb6e886ebf85ee91ec151e6592e48158f37d7c7000000006a4730440220057c67c9c8ae9e288df1e4253e197ac285f57a7e020ce89fadb100069d089b5d0220466b1589180dd1d00b24012f296fe761b4bd9d242dc9461872bdec41e009f2d4012103171d61c699014278803aa18526122b16288a41c6996f8f4550a5b30b071905f8ffffffff"
            }
        ],
        "outputs": [
            {
                "address": "2NAPFSAcfaMKFiWpkrxPEHdXi5VUXCTPJ1M",
                "script_pub_key": "a914bbfeac5caee50aeff79a7a94c3b6f8fd01300c6e87",
                "amount": 437719,
                "serialized": "d7ad06000000000017a914bbfeac5caee50aeff79a7a94c3b6f8fd01300c6e87"
            },
            {
                "address": "tb1qphwnxtw3agrdk0ku4ax2gkugghn86et2dwl56q",
                "script_pub_key": "00140ddd332dd1ea06db3edcaf4ca45b8845e67d656a",
                "amount": 437719,
                "serialized": "d7ad0600000000001600140ddd332dd1ea06db3edcaf4ca45b8845e67d656a"
            },
            {
                "address": "tb1qjnctt83ktsfxjuhzssrs6z5fg2xzefyzeujxez8xa5ucrq24qkss4y2q49",
                "script_pub_key": "002094f0b59e365c126972e284070d0a89428c2ca482cf246c88e6ed3981815505a1",
                "amount": 437719,
                "serialized": "d7ad06000000000022002094f0b59e365c126972e284070d0a89428c2ca482cf246c88e6ed3981815505a1"
            }
        ],
        "segwit": false,
        "fee": 10000,
        "version": 2,
        "locktime": 0,
        "id": "01808971984dcdfbcc7e8afc2bba85345be40f12713dc2edae29718eaeb1f7a9",
        "serialized": "0200000001b243d0ef1bb19d492d3fe92d1fb6e886ebf85ee91ec151e6592e48158f37d7c7000000006a4730440220057c67c9c8ae9e288df1e4253e197ac285f57a7e020ce89fadb100069d089b5d0220466b1589180dd1d00b24012f296fe761b4bd9d242dc9461872bdec41e009f2d4012103171d61c699014278803aa18526122b16288a41c6996f8f4550a5b30b071905f8ffffffff03d7ad06000000000017a914bbfeac5caee50aeff79a7a94c3b6f8fd01300c6e87d7ad0600000000001600140ddd332dd1ea06db3edcaf4ca45b8845e67d656ad7ad06000000000022002094f0b59e365c126972e284070d0a89428c2ca482cf246c88e6ed3981815505a100000000"
    },
    {
        "inputs": [
            {
                "wif": "L5F9GbmZseYSRh7bWycCH766GE5y5ozzhv4ysQsU4kZiFgu2gGzK",
                "type": "P2SH_P2WPKH",
                "txid": "01808971984dcdfbcc7e8afc2bba85345be40f12713dc2edae29718eaeb1f7a9",
                "vout": 0,
                "amount": 437719,
                "script": "160014927555abae5dbfb4bb567ed8d3041d2a7d4ae23d",
                "witness": "47304402200bcc1f574007aa05f6f135be8178246dd07dc8574f11af8df68dab28d0cd9d710220423455914b1b2a3ff3f127c848d5f6d31ffd86503182d694733078d1eda94aa30121036a36108d8f8621749e26fc7b508d923be94cf22d73926ffd1a755d502b987839",
                "sequence": 4294967295,
                "serialized": "a9f7b1ae8e7129aeedc23d71120fe45b3485ba2bfc8a7eccfbcd4d98718980010000000017160014927555abae5dbfb4bb567ed8d3041d2a7d4ae23dffffffff"
            }
        ],
        "outputs": [
            {
                "address": "mkE57wsg4vvzc5g7frV5HdEe3QVvrzYFwy",
                "script_pub_key": "76a91433a741627a4e8267ef4e8abfc965fbdf1e5bc78c88ac",
                "amount": 142573,
                "serialized": "ed2c0200000000001976a91433a741627a4e8267ef4e8abfc965fbdf1e5bc78c88ac"
            },
            {
                "address": "tb1qphwnxtw3agrdk0ku4ax2gkugghn86et2dwl56q",
                "script_pub_key": "00140ddd332dd1ea06db3edcaf4ca45b8845e67d656a",
                "amount": 142573,
                "serialized": "ed2c0200000000001600140ddd332dd1ea06db3edcaf4ca45b8845e67d656a"

            },
            {
                "address": "tb1qjnctt83ktsfxjuhzssrs6z5fg2xzefyzeujxez8xa5ucrq24qkss4y2q49",
                "script_pub_key": "002094f0b59e365c126972e284070d0a89428c2ca482cf246c88e6ed3981815505a1",
                "amount": 142573,
                "serialized": "ed2c02000000000022002094f0b59e365c126972e284070d0a89428c2ca482cf246c88e6ed3981815505a1"

            }
        ],
        "segwit": true,
        "fee": 10000,
        "version": 2,
        "locktime": 0,
        "id": "5b3976e452fa47208305f0fe895302563c5e828d70a65ecfe9dc9d2e5d8b8205",
        "serialized": "02000000000101a9f7b1ae8e7129aeedc23d71120fe45b3485ba2bfc8a7eccfbcd4d98718980010000000017160014927555abae5dbfb4bb567ed8d3041d2a7d4ae23dffffffff03ed2c0200000000001976a91433a741627a4e8267ef4e8abfc965fbdf1e5bc78c88aced2c0200000000001600140ddd332dd1ea06db3edcaf4ca45b8845e67d656aed2c02000000000022002094f0b59e365c126972e284070d0a89428c2ca482cf246c88e6ed3981815505a10247304402200bcc1f574007aa05f6f135be8178246dd07dc8574f11af8df68dab28d0cd9d710220423455914b1b2a3ff3f127c848d5f6d31ffd86503182d694733078d1eda94aa30121036a36108d8f8621749e26fc7b508d923be94cf22d73926ffd1a755d502b98783900000000"
    },
    {
        "inputs": [
            {
                "wif": "KyzuhbqsMrrJ8dK6ktspu7XwgVNhwnzv3raqw4oSciYpBHwMy6ZA",
                "type": "P2WPKH",
                "txid": "01808971984dcdfbcc7e8afc2bba85345be40f12713dc2edae29718eaeb1f7a9",
                "vout": 1,
                "amount": 437719,
                "script": null,
                "witness": "483045022100d82080dabfdaca5cc159a92f3802a6753f82eaea7916f72c6a5a96c50437decf0220482a44125befe203af085ad34b43e44d082101692c4b0f9d4c2ae83171aac3f0012103c6baa07c44a568b416c1d35e0ec33a01b33106c7f3cce522200c270900486cea",
                "sequence": 4294967295,
                "serialized": "a9f7b1ae8e7129aeedc23d71120fe45b3485ba2bfc8a7eccfbcd4d98718980010100000000ffffffff"
            }
        ],
        "outputs": [
            {
                "address": "mkE57wsg4vvzc5g7frV5HdEe3QVvrzYFwy",
                "script_pub_key": "76a91433a741627a4e8267ef4e8abfc965fbdf1e5bc78c88ac",
                "amount": 142573,
                "serialized": "ed2c0200000000001976a91433a741627a4e8267ef4e8abfc965fbdf1e5bc78c88ac"

            },
            {
                "address": "2NAPFSAcfaMKFiWpkrxPEHdXi5VUXCTPJ1M",
                "script_pub_key": "a914bbfeac5caee50aeff79a7a94c3b6f8fd01300c6e87",
                "amount": 142573,
                "serialized": "ed2c02000000000017a914bbfeac5caee50aeff79a7a94c3b6f8fd01300c6e87"

            },
            {
                "address": "tb1qjnctt83ktsfxjuhzssrs6z5fg2xzefyzeujxez8xa5ucrq24qkss4y2q49",
                "script_pub_key": "002094f0b59e365c126972e284070d0a89428c2ca482cf246c88e6ed3981815505a1",
                "amount": 142573,
                "serialized": "ed2c02000000000022002094f0b59e365c126972e284070d0a89428c2ca482cf246c88e6ed3981815505a1"

            }
        ],
        "segwit": true,
        "fee": 10000,
        "version": 2,
        "locktime": 0,
        "id": "8f07acf27153630eb7a4fb87293a0313bd40df412d973449f4c0ce3a16bea8e8",
        "serialized": "02000000000101a9f7b1ae8e7129aeedc23d71120fe45b3485ba2bfc8a7eccfbcd4d98718980010100000000ffffffff03ed2c0200000000001976a91433a741627a4e8267ef4e8abfc965fbdf1e5bc78c88aced2c02000000000017a914bbfeac5caee50aeff79a7a94c3b6f8fd01300c6e87ed2c02000000000022002094f0b59e365c126972e284070d0a89428c2ca482cf246c88e6ed3981815505a102483045022100d82080dabfdaca5cc159a92f3802a6753f82eaea7916f72c6a5a96c50437decf0220482a44125befe203af085ad34b43e44d082101692c4b0f9d4c2ae83171aac3f0012103c6baa07c44a568b416c1d35e0ec33a01b33106c7f3cce522200c270900486cea00000000"
    },
    {
        "inputs": [
            {
                "wif": "L1Nm5XQzMMpTH5hrkKdJgr8jDx696Ge3cv13yqGhnauUdfGangzL",
                "type": "P2WSH",
                "txid": "01808971984dcdfbcc7e8afc2bba85345be40f12713dc2edae29718eaeb1f7a9",
                "vout": 2,
                "amount": 437719,
                "script": null,
                "witness": "0047304402201bc754a4979c98e8dfc912b15f205d4389a7e7a10d306174d5fbfd303d0ca21802205431373175281f379e4ca1db4c5fef35931ad148f088caf76e2248881f5952b701255121030d27a04b8aaa1bc5839bb83ebdadca652ea97950fe28741f27996c65f716e33e51ae",
                "sequence": 4294967295,
                "serialized": "a9f7b1ae8e7129aeedc23d71120fe45b3485ba2bfc8a7eccfbcd4d98718980010200000000ffffffff"
            }
        ],
        "outputs": [
            {
                "address": "mkE57wsg4vvzc5g7frV5HdEe3QVvrzYFwy",
                "script_pub_key": "76a91433a741627a4e8267ef4e8abfc965fbdf1e5bc78c88ac",
                "amount": 142573,
                "serialized": "ed2c0200000000001976a91433a741627a4e8267ef4e8abfc965fbdf1e5bc78c88ac"

            },
            {
                "address": "2NAPFSAcfaMKFiWpkrxPEHdXi5VUXCTPJ1M",
                "script_pub_key": "a914bbfeac5caee50aeff79a7a94c3b6f8fd01300c6e87",
                "amount": 142573,
                "serialized": "ed2c02000000000017a914bbfeac5caee50aeff79a7a94c3b6f8fd01300c6e87"

            },
            {
                "address": "tb1qphwnxtw3agrdk0ku4ax2gkugghn86et2dwl56q",
                "script_pub_key": "00140ddd332dd1ea06db3edcaf4ca45b8845e67d656a",
                "amount": 142573,
                "serialized": "ed2c0200000000001600140ddd332dd1ea06db3edcaf4ca45b8845e67d656a"

            }
        ],
        "segwit": true,
        "fee": 10000,
        "version": 2,
        "locktime": 0,
        "id": "9f98547b2572c1a9fe9f4756524b2eabf8746607bf617963968c2446057a7585",
        "serialized": "02000000000101a9f7b1ae8e7129aeedc23d71120fe45b3485ba2bfc8a7eccfbcd4d98718980010200000000ffffffff03ed2c0200000000001976a91433a741627a4e8267ef4e8abfc965fbdf1e5bc78c88aced2c02000000000017a914bbfeac5caee50aeff79a7a94c3b6f8fd01300c6e87ed2c0200000000001600140ddd332dd1ea06db3edcaf4ca45b8845e67d656a030047304402201bc754a4979c98e8dfc912b15f205d4389a7e7a10d306174d5fbfd303d0ca21802205431373175281f379e4ca1db4c5fef35931ad148f088caf76e2248881f5952b701255121030d27a04b8aaa1bc5839bb83ebdadca652ea97950fe28741f27996c65f716e33e51ae00000000"
    }
]